:020000040800F2
:100000000000022039E80008BD070008C107000809
:10001000C5070008C9070008CD0700080000000058
:10002000000000000000000000000000D1070008F0
:10003000D507000800000000D9070008DD07000808
:1000400081E8000881E8000881E8000881E80008EC
:1000500081E8000881E80008E9070008E1070008D6
:1000600081E8000881E8000881E8000881E80008CC
:1000700081E8000881E8000881E8000881E80008BC
:1000800081E8000881E8000881E8000881E80008AC
:1000900081E8000881E8000881E8000881E800089C
:1000A00081E8000881E8000881E8000881E800088C
:1000B000F107000881E8000881E8000881E80008ED
:1000C00081E8000881E8000881E8000881E800086C
:1000D00081E80008A5140008E91400082D1500089F
:1000E00081E8000881E8000881E8000881E800084C
:1000F00081E8000881E8000881E80008610E000836
:1001000081E8000881E8000881E8000881E800082B
:1001100071150008B515000881E8000881E800089D
:1001200081E8000881E8000881E8000881E800080B
:1001300081E8000881E8000881E8000881E80008FB
:1001400081E8000881E8000881E80008F507000858
:1001500081E8000881E8000881E80008F915000836
:1001600081E8000881E8000881E8000881E80008CB
:1001700081E8000881E8000881E8000881E80008BB
:0801800081E8000881E8000895
:1001900030B52C4883B041B34FF4005109F02EF82C
:1001A0002848294D4FF4804109F02AF8274C21684E
:1001B000606801F053FA21686268091A024400235A
:1001C000009321606260A0682B462246211D01F049
:1001D000BDFAA8B1023001D003B030BDE1692846B4
:1001E00003B0BDE8304000F0FDBD4FF4804109F0A0
:1001F00005F81448164D4FF4005109F001F8D5E701
:1002000004F10C01A06801F043FA2369E169012BB4
:10021000E5D100290EDB4A1C05EB4202C5F1000CBA
:10022000C5F1020032F9023D2CF81230954220F857
:100230001230F7D149002846E16103B0BDE83040F3
:1002400000F0D0BD000C0240FC330020AC070020C1
:10025000FC130020F0B5314C83B0002306460D4658
:1002600001938DF80330012201AB0DF1030104F17C
:10027000280007F0CFF810B9019B012B02D0012014
:1002800003B0F0BD771E772F0FD801AB04F1280023
:100290003A46294607F0BEF810B1019B9F42EED1C5
:1002A0009DF8030060B9E855EAE7216B04F12800E6
:1002B000394407F073F9003818BF012003B0F0BDCE
:1002C000012801D00020DBE7022F18D92978FF2967
:1002D00019D000206A1E034600E0E95C02F8011F05
:1002E00002339F42F9D8B31E1B1A5B080133013059
:1002F000874238BF01231D4400202870C0E7002F2B
:10030000FAD02978E5E76B78A3F1FE03B3FA83F31B
:100310005B09580015F81310DCE700BFAC0700209C
:1003200070B5012188B04FF4801008F013FD264EFF
:10033000264C274D0121042008F0E8FC012108206B
:1003400008F0E4FC4FF48052224B029202A930469E
:10035000039308F0DDFE042302A92046029308F06F
:10036000D7FE304608220C2108F058FF082220460C
:10037000022108F053FF4FF4E133002404A928467A
:1003800004934FF44023CDE90543ADF81C4009F038
:10039000D9FE012240F2255128460AF035F80E4BCD
:1003A000019301A808F00EFB0121284609F052FF35
:1003B0000A4B0D2283F84C24A3F87E44A3F8804412
:1003C00083F8824408B070BD00080240000C02406F
:1003D000005000400202000135000001AC0700207F
:1003E00010B50D4C002004F24C4100F0D7FF01285D
:1003F00084F8BC0400D010BD084BD4F84C249A42B9
:10040000F9D104F58A600EF03CFAFF28F3D8BDE874
:10041000104000F06FBC00BFAC070020564F4C3AB4
:100420002DE9F04FAE4FAF49ADF50D7D4FF4807320
:1004300015A8CDE9137307F09DF9002840F0BE80A0
:10044000A7F59363A74EA84DDFF8BCA20293A7F5CA
:1004500098640DA915A807F0BBF9002840F0AE80FC
:100460009DF83D30002B00F0A9802E2BF1D0139B7E
:100470001A780AB90DF13D039DF83C20D006E8D466
:100480005AAF2946324638460EF0B8FA2E21384681
:100490000EF0EEFA0028DCD0B842DAD0411C9348C6
:1004A0000DF0DAF90028D4D139464FF40053904FBB
:1004B000029867600122236006F00CFF0028C8D173
:1004C00004908DF878008DF8F00004AB89480A227A
:1004D00007A906F09FFF002874D1049B0A2B71D155
:1004E0009DF81C30492B03D19DF81D30442B6CD056
:1004F0004FF000090DF128087E48494607F04EF8F4
:1005000043467B497B484FF4005206F083FF01F0DD
:100510009FF8C823A060C4F8C035D4F8C035002BBC
:10052000FBD10622022140F20F10019300F0BEFA27
:10053000AF2000F0DFFB019B6F48DFF8B4B1DFF8BC
:10054000B491194600F0F4FBC82000F0D3FBFFF78C
:1005500047FF2368B3F5805FF9DA2268616858467F
:100560000EF0C8FA226821686760C2F5005239446B
:1005700043464846019206F04DFFD8F80030019AF4
:100580004FF400519A42216004D818B9DAF81030BB
:10059000DA07DCD500F0FEFB00230622022140F240
:1005A0000F1000F083FA002000F0A4FB514806F081
:1005B000EDFFDAF81030DB07FBD44AE70DF50D7DCF
:1005C000BDE8F08F0DF128089AE79DF81E30332B17
:1005D0008ED19DF822909DF823309DF81FB04FEAF0
:1005E00049599B0303F4FE1309F07E6949EA0309A4
:1005F0009DF8253003F07F0349EA03099DF8243074
:10060000DB0103F47E5349EA03099DF821305906C2
:100610000DF128087AD402230193CDF80C903548C7
:1006200004AB0A22414606F0F5FE00287FF468AFCD
:10063000049B0A2B7FF464AF98F80030002B34D071
:10064000B8F8002044F233439A4235D02B4B93E85C
:100650000300D8F8003005938DF818100BAB0CA8E8
:100660004FF00009BBF1030F22D0BBF1040F04D1FE
:100670001A7802F07F0202EBC91901339842F1D1D6
:100680001F4905A80DF0E8F818B31E4905A80DF09C
:10069000E3F8B0B948463CA9FFF7DCFD28B9019B57
:1006A000013B0193019B002BB9D1DDF80C9023E7AE
:1006B0001A7802EB0929E0E798F80230492BC5D1F6
:1006C000F3E7216B0B48494406F068FF0028A6D0E9
:1006D00016E748461EA9FFF7BDFD0028DFD0E4E776
:1006E0006C0C0020047D0108F07C0108F87C0108F6
:1006F00000540020D407002091010008184301088D
:10070000007D0108087D01080000024004AB0422BE
:100710004146114806F07EFE98F8003098F8012016
:100720000D485B05920302F4FE1203F07E6313434F
:1007300098F8032002F07F02134398F80220D201B8
:1007400002F47E521343226B043A991806F026FFF6
:1007500000283FF460AFD3E6D407002010B52E2167
:1007600004460EF085F918B1844201D0013010BD65
:10077000004810BD047D0108074BD3F8C02522B105
:10078000D3F8C025013AC3F8C025D3F84C2C013268
:10079000C3F84C2C704700BFAC07002082B0054A5C
:1007A0000190019BC2F8C035D2F8C035002BFBD1B7
:1007B00002B07047AC070020704700BF704700BF11
:1007C000FEE700BFFEE700BFFEE700BFFEE700BF99
:1007D000704700BF704700BF704700BFFFF7CCBF36
:1007E000022008F003BC00BF012008F0FFBB00BFDF
:1007F00000F090BC01480BF0ABBE00BF040E00201F
:1008000039483A4AD0F8883043F47003C0F8883049
:100810001368002143F00103136091601368A0F195
:10082000BC2023F0847323F48033F03813605060CD
:10083000136882B023F480231360D160009101918A
:10084000136843F48033136003E0009BB3F5A06F9B
:1008500009D0136803F400330193009B0133009324
:10086000019B002BF1D0214B1B6813F4003318BF00
:1008700001230193019B012B05D01B4B4FF000621C
:100880009A6002B07047194B19491A6C194842F026
:1008900080521A640A6842F480420A609A689A6038
:1008A0009A6842F400429A609A6842F4A0529A60B0
:1008B00058601A6842F080721A601A689201FCD57A
:1008C0000D4A40F205611160996821F003019960B9
:1008D000996841F00201A2F580629960936803F083
:1008E0000C03082BFAD1C8E700ED00E00038024005
:1008F0000070004008544007003C0240164A9368CC
:1009000003F00C03042B0BD0082B0BD0134B124A13
:1009100013499268C2F303128A5CD3400B6170479B
:10092000104BF4E75368516813F4800F536814BFF9
:100930000C4A0A4AC3F3881301F03F01B2FBF1F2FB
:1009400002FB03F3044A5268C2F30142013252002F
:10095000B3FBF2F3DBE700BF003802400024F400F1
:100960000000002040787D014FF0FF30704700BF4D
:100970000020704700207047104670470E4A08B5A7
:1009800013684BB1EFF308807047C3420BD1116875
:1009900001441160184608BD084B1360EFF308804E
:1009A0007047C342F3D00EF07BF80C2303604FF086
:1009B000FF33184608BD00BF047400200CE200207D
:1009C0004FF400534B600020704700BF0120704778
:1009D0000120704708B50EF063F8162303604FF04E
:1009E000FF3008BDEFF308807047704710B4144A19
:1009F000138B9C07FCD41388114C9BB243F4807377
:100A00001380A38ADB07FCD594230D4A2382938AA3
:100A10009C07FCD583B20A48148B1382838A1A067A
:100A2000FCD589B2064A0182938A5B07FCD51388FC
:100A30005DF8044B9BB243F400731380704700BF12
:100A400000540040154A164B164910B4C2F8B810AD
:100A500018681549C2F8BC00C2F8C0105868C2F83E
:100A6000C4000421C2F8CC10D2F8B8101C6941F0BF
:100A700001010020C2F8B81058609A68012182F084
:100A800001029A6019732CB19968586923465DF880
:100A9000044B18475DF8044B704700BF00600240EC
:100AA00008740020502C01000C3C00402DE9F04F50
:100AB000DFF80CC2DFF8F8A18846012185B00024D8
:100AC00007460846CCF80440CCF81040CCF800406B
:100AD000CCF81440CCF8084015468CF80C401E4663
:100AE00008F014F90121022008F010F90121042076
:100AF00008F00CF90121082008F008F901214FF451
:100B0000001008F003F901214FF4001008F022F959
:100B100001214FF4004008F01DF94FF0100940F298
:100B2000012302A950460393CDF8089008F0F0FA8B
:100B30005B4A5C484FF4107302A9CDE9023208F019
:100B4000E7FA58480422062108F068FB04225548B9
:100B5000092108F063FB40F2022B4FF4A4535248E2
:100B6000029302A9CDF80CB008F0D2FA4E48062242
:100B7000072108F053FB4C4806220A2108F04EFBDF
:100B8000062249480C2108F049FB4848CDF80CB032
:100B900002A9CDF8089008F0BBFA444806220421C7
:100BA00008F03CFBAAF81A900194019B44F6FE7CE5
:100BB000634506DC00BF019C01340194019C64453F
:100BC000F8DD3B4B3B4C10221A8301214FF40010FF
:100BD00008F0FCF800214FF4001008F0F7F8364B4D
:100BE0002A229A8048F233021A81D2229A832B2237
:100BF0001A8440F201421A8001210220FFF7F6FE1A
:100C0000AF210420FFF7F2FE81210520FFF7EEFE61
:100C100004210620FFF7EAFE18212020FFF7E6FE58
:100C200018212120FFF7E2FE9E210220FFF7DEFEC1
:100C300000210A20FFF7DAFE04210E20FFF7D6FE7E
:100C400000212720FFF7D2FE0F211F20FFF7CEFE45
:100C50000A211A20FFF7CAFE0A211B20FFF7C6FE51
:100C6000164B00229A83A368BF0123F4000347EACE
:100C70000877A360C4F88470236843F0806323601E
:100C800021680B01FCD545EA06230C4A43F40075A4
:100C9000ADB24FF460631584938305B0BDE8F08F67
:100CA000020201000004024000080240000002406D
:100CB000000C02400038024000540040003C00405C
:100CC0000874002008B59E210220FFF78FFE024B1A
:100CD0004FF460629A8308BD003C004008B50121D2
:100CE0000220FFF783FE024B00229A8308BD00BF5B
:100CF000003C004000B5193083B0C1B22020019102
:100D0000FFF774FE0199212003B05DF804EB6DE656
:100D1000034A13899B07FCD580B29081704700BFBE
:100D2000003C0040014B80B298817047003C00407D
:100D3000144AD2F8B83023F0010370B40446C2F864
:100D4000B8300846D2F8B83013F00103FAD10E4D8E
:100D50000E4A0F492B734FF400464FF0400CC5E983
:100D60000440566082F82FC38A8892B242F0020291
:100D70008A80AB601CB1A968234670BC184770BC60
:100D8000704700BF006002400874002000E100E0EE
:100D9000003C00400F4AD2F8B83023F0010310B4F1
:100DA000C2F8B830D2F8B83013F00103FAD10A48CB
:100DB0000A4903738A88036122F002031B04084C6A
:100DC0001B0C8B804FF40043C4F884305DF8044B57
:100DD000704700BF0060024008740020003C0040E3
:100DE00000E100E00E4B5A6810B51AB130BF5A68E6
:100DF000002AFBD10B4A4FF40044C2F884405860EB
:100E000019601B7B23B1074B4FF400425A6010BDA1
:100E1000FFF718FE034B4FF400425A6010BD00BFAD
:100E20000874002000E100E00B4B5A680AB1002072
:100E300070470A4A10B54FF40044C2F88440586025
:100E400019601B7B2BB1054B4FF400425A60012007
:100E500010BDFFF7F7FDF6E70874002000E100E0A1
:100E6000054A0649D36843F00063D3604B6803B179
:100E7000E8E50B73704700BF006002400874002073
:100E8000704700BF704700BF704700BF704700BF8A
:100E90000120704702484FF4804108F0AFB900BF0D
:100EA000000C024008B507484FF4804108F0A8F94B
:100EB00004484FF4805108F0A3F9034B00221A6054
:100EC00008BD00BF000C0240F413002010B50A4911
:100ED000002006F0EFF958B9084A136804460133B8
:100EE000074813604FF4805108F088F9204610BD80
:100EF0004FF0FF3010BD00BF20740020F41300201D
:100F0000000C0240704700BF704700BF704700BF31
:100F1000704700BF704700BF704700BF704700BFF9
:100F2000704700BF704700BF08B54FF4FA7000F07B
:100F3000EFF80849002006F0BDF950B9064A074805
:100F40001368013313604FF48051BDE8084008F086
:100F500055B908BD20740020F4130020000C024095
:100F600030B51F4C85B003460D464FF08040002140
:100F7000236008F0F1FA002201214FF0804008F0D0
:100F800031FF022D42F6DF6308BF0B23002201A9C7
:100F90004FF0804002930523ADF80C20019308F038
:100FA0002DFA01214FF0804008F03EFF01214FF063
:100FB000804008F0ABFA012211464FF0804008F063
:100FC00011FF01214FF0804008F0C6FA2168002986
:100FD000FCD14FF0804005B0BDE8304008F0BCBA0D
:100FE000BC7C0020704700BF10B50121264C84B0A6
:100FF000084607F08BFE40F2023302A920464FF468
:10100000D052CDE9022308F083F820460A220921B4
:1010100008F004F920460A220B2108F0FFF82046C8
:101020000A220C2108F0FAF8032302A920464FF403
:1010300080628DF80D3040F20113ADF80E3002924F
:1010400008F066F80A221146204608F0E7F8012168
:101050004FF4804007F08AFE0121802007F062FEF5
:1010600000214FF0006007F0E5FC4FF4A06007F0AE
:101070009FFC064B019301A807F0A4FC0121084640
:1010800007F068FE04B010BD000002401C00010122
:1010900000B54FF4C06083B007F08AFC064B0193A3
:1010A00001A807F08FFC054B019301A807F08AFC0B
:1010B00003B05DF804FB00BF430101011701020109
:1010C000034811B9012108F099B8012108F098B836
:1010D0000008024030B50C4D83B00121042007F018
:1010E00015FE012440F2012369462846CDE900435C
:1010F00008F00EF82146284608F080F82146C8205E
:10110000FFF72EFF03B030BD00080240022127E7A1
:10111000012125E708B501214FF0804008F078FE55
:1011200000B908BD01214FF0804008F07DFE064B5C
:10113000196819B11A68013A1A6008BDBDE808407B
:101140004FF0804008F008BABC7C00202DE9F04345
:10115000364C374E374FDFF8E49089B004F1700811
:10116000206A012107F0D2FD206B012107F0CEFD9E
:10117000E3686068BB424FF0010154D04B4552D048
:10118000012107F0E7FD227A94F82410A06908F005
:1011900045F8227A94F83410A06A08F03FF8A38B3F
:1011A000254AA06902A9CDE9023207F0B1FFA38D5B
:1011B000A06A029302A907F0ABFFE068012109F0E1
:1011C00061F8D4E9030300254FF4402204A9CDE9D6
:1011D00004350692ADF81C5008F0B4FFE068012118
:1011E00009F038F8E068012240F2255109F00CF9C5
:1011F000383414F8242C8DF804204FF4807301A89F
:10120000ADF806308DF8055007F0DCFB0D234445A2
:1012100033707586B58686F8365006F138069FD14C
:1012200009B0BDE8F08307F0A1FDACE75C00002049
:10123000F80B0020001001400203000100140140DF
:10124000F8B50A4EC0EBC0050F4606EBC504E068D2
:10125000802109F0F3F80028F9D006EBC5063946DD
:10126000F068BDE8F84009F029B800BF5C00002034
:101270002DE9F0410B7806461746B3B1DFF8188127
:10128000C0EBC0040D4608EBC4041FFA83F8E06805
:10129000802109F0D3F80028F9D0E068414609F030
:1012A0000DF815F8013F002BEFD1013F032F70D847
:1012B000DFE807F02B4D1702DFF8DC80C6EBC6062F
:1012C00008EBC604E068802109F0B8F80028F9D0DE
:1012D00008EBC6080D21D8F80C00BDE8F04108F075
:1012E000EDBFDFF8B480C6EBC60608EBC604E068C5
:1012F000802109F0A3F80028F9D008EBC6060A21DE
:10130000F068BDE8F04108F0D9BFDFF88C80C6EB8B
:10131000C604F50008EBC404E068802109F08EF8EB
:101320000028F9D0E0680A2108F0C8FFAD1B08EBDF
:10133000C504E068802109F081F80028F9D008EBA5
:10134000C5050D21E868BDE8F04108F0B7BFDFF83A
:101350004880C6EBC604F50008EBC404E0688021B1
:1013600009F06CF80028F9D0E0680D2108F0A6FF1C
:10137000AD1B08EBC504E068802109F05FF8002888
:10138000F9D008EBC5050A21E868BDE8F04108F08E
:1013900095BFBDE8F08100BF5C000020F0B5234E92
:1013A000C0EBC00406EBC404B4F834E0658EAE456F
:1013B00011D0C700734608E014F803C0BCF10D0F4C
:1013C00093B210D0322B28BF0023AB4203F10102AD
:1013D000F2D10020F0BD94F836000228F9D10023A4
:1013E00084F83630F0BDA7EB000C06EBCC0C0023E4
:1013F00003E0AE45CA54A3B20ED00EF101041CF8AE
:101400000E201FFA84FEBEF1320F28BF4FF0000EEF
:101410000D2A03F10104ECD13F1A06EBC7060022A6
:10142000CA540120A6F834E0F0BD00BFF80B00203C
:10143000134BC0EBC00203EBC20200B5A1F1200EBA
:10144000BEF15E0FB2F832C04FEAC00203D90D29D7
:1014500001D05DF804FB121A03EBC2030CF1010288
:1014600092B2322A988E03F80C1028BF00229042C4
:101470005A8604BF022283F836205DF804FB00BFC1
:10148000F80B0020064B1A7D824206D093F84C30B0
:10149000834208BF012001D070470020FFF7C8BF7A
:1014A0005C00002010B50E4840F2255108F0D0FF36
:1014B000012800D010BD0446094808F003FF094B7D
:1014C0001A7D252A04D093F84C30252B01D010BD6D
:1014D000002401462046BDE81040FFF7A9BF00BF29
:1014E000001001405C00002010B50E4840F225516C
:1014F00008F0AEFF012800D010BD0446094808F0EE
:10150000E1FE094B1A7D262A04D093F84C30262B95
:1015100001D010BD002401462046BDE81040FFF771
:1015200087BF00BF004400405C00002010B50E489B
:1015300040F2255108F08CFF012800D010BD044670
:10154000094808F0BFFE094B1A7D272A04D093F8FA
:101550004C30272B01D010BD002401462046BDE8A9
:101560001040FFF765BF00BF004800405C0000204E
:1015700010B50E4840F2255108F06AFF012800D04E
:1015800010BD0446094808F09DFE094B1A7D342A17
:1015900004D093F84C30342B01D010BD0024014608
:1015A0002046BDE81040FFF743BF00BF004C00409D
:1015B0005C00002008B50E4840F2255108F048FFB5
:1015C00000B908BD0A4808F07DFE0A4B1A7D352A8D
:1015D0000BD093F84C30352B08BF0123F1D10146D5
:1015E0001846BDE80840FFF723BF0023F7E700BF18
:1015F000005000405C00002010B50E4840F225511C
:1016000008F026FF012800D010BD0446094808F064
:1016100059FE094B1A7D472A04D093F84C30472BCA
:1016200001D010BD002401462046BDE81040FFF760
:10163000FFBE00BF001401405C0000202C810108A7
:1016400000000020AC070020AC0700200CE20020C6
:1016500000F078BD08B100F0DDBD7047012913DD51
:10166000A0F1020C8C44431EC0F1010101E063456E
:101670000AD0C81813F8012FFF2AF8D15A7802F0BF
:10168000E002E02AF3D170474FF0FF30704700BF0F
:1016900018B1D0F8D037032B08D00023C1E90033AC
:1016A000C1E90233C1E904338B617047D0F8B82730
:1016B00010B4D0F8BC47C1E90024D0F8C0278A6034
:1016C0001022CA6090F8D407074A886100EB400CEA
:1016D00002EB4C02B2F9042004FB02F2C1E904233C
:1016E0005DF8044B704700BFE046010848B338B5C9
:1016F0000C461146054600F00BFB01301ED0D5F814
:10170000D037032B1AD1D5F8B827D5F8BC17C4E9C0
:101710000021D5F8C027A2601022E26095F8D427F6
:101720006361094BA26102EB420003EB400300201E
:10173000B3F9043001FB03F3236138BD6FF00500FA
:1017400038BD6FF004007047E04601082DE9F04F06
:1017500089B00493002800F0D1810F4609689246B1
:10176000814600F0D5FAB0F10008C0F2C4813968B2
:1017700041443960484600F0AFFB0028C0F20782C0
:10178000DAF800303A6808EB0001591A02EB000E53
:10179000C7F800E0CAF80010D9F8B837002B00F0FD
:1017A0008F80D9F8B0374BB1D9F8B447484600F02C
:1017B000A3FA2044C9F8CC07DAF80010129B002BDA
:1017C00000F0ED80D9F8D837C9F8CC17002B40F0DD
:1017D0007D81002940F37A81C9F8DC17D7F80080B1
:1017E000DAF800305B1A41443960CAF80030D9F8A1
:1017F000C427D9F8DC470020824207904FEAC4048E
:101800005BDD09F5FC6383460593D9F8BC37002BF3
:1018100040F3F280059BCDF80CB04FF0000A57461C
:10182000079EC3469A4618E0A4452FDC039801970B
:101830000090484601F032F8002807F10107C5EB97
:10184000C0058344C0F20C81079ED9F8BC373544EB
:10185000BB42A8EB050440F3CC80039800905946A6
:10186000234607AA0197484602F0B0FB079D5AF8A5
:1018700004CBC6EBC00606EB050E8344002807AA7E
:101880005946ACEB0E03A4EB0E08CDDAD9F8C82705
:10189000D9F8C417D9F8BC3701FB02F203FB02F2F6
:1018A000002A08DD049B023B03EB4202002123F8DF
:1018B000021F9A42FBD16FF0070009B0BDE8F08F1C
:1018C000D9F8B037002B7FF46FAF0123C9F8B037D8
:1018D000DAF800104E1E002EA2EB080C734619DD3C
:1018E000002502E00135B54214D01C4613F8012B47
:1018F000FF2AF7D1627802F0E002E02AF2D19CF8E8
:101900000030FF2B22D00335491B4E1E002E04F160
:101910000303E5DC4FF0FF33C9F8B437D9F8C43717
:10192000D9F8C817D9F8BC2701FB03F302FB03F36E
:10193000002B08DD049A023A02EB4303002122F84F
:10194000021F9342FBD16FF00200B6E762789CF869
:1019500001309A42D7D19CF80220A378534013F06B
:10196000FC0FD0D1930748BF04F1FF34A4EB0E0461
:10197000002CC9F8B447D1DBD9F8C027D9F8C8176B
:1019800008EB0403034402FB03F3D9F8C427DB008C
:1019900001FB02F293FBF2F3C9F8B83706E7D9F876
:1019A000CC07884200F30B81D9F8DC37D9F8D82767
:1019B0009342C0F2BE809B1A09F11C0808EB030198
:1019C00040460DF03BF8D9F8D807D9F8CC2739684C
:1019D00040440DF08FF8D9F8CC27D9F8D837134404
:1019E000C9F8DC373B6813443B60DAF800309B1AD7
:1019F000FBE6D846DDF80CB05946484600F00CFC32
:101A000000287EDBD9F8BC170029C8BF002504DCFC
:101A100041E0D9F8BC37AB423CDD2A46594648463E
:101A200001F03AFC002805F10105F2DAD9F8C827DF
:101A3000D9F8C417D9F8BC3701FB02F203FB02F254
:101A4000002A08DD049B023B03EB4202002123F83D
:101A5000021F9A42FBD16FF00A0009B0BDE8F08F77
:101A6000D9F8C827D9F8C417D9F8BC3701FB02F256
:101A700003FB02F2002A08DD049B023B03EB420257
:101A8000002123F8021F9342FBD16FF0080009B038
:101A9000BDE8F08F1946D9F8C827049B02FB0BF26A
:101AA00002FB01F103EB4101484603F063F9002812
:101AB000C0F29D80059B08330593D9F8C4370BF11C
:101AC000010B5B453FF7A1AE0020F6E6D9F8C83719
:101AD000D9F8C417D9F8BC2701FB03F302FB03F3C1
:101AE000002B08DD049A023A02EB4303002122F89E
:101AF000021F9342FBD16FF00500DEE66FF0040099
:101B0000DBE6D9F8C837D9F8C417D9F8BC2701FBE8
:101B100003F302FB03F3002B08DD049A023A02EB05
:101B20004303002122F8021F9342FBD16FF009000A
:101B3000C3E6024609F11C00396818440CF0DAFFCC
:101B4000D9F8CC27D9F8DC371344C9F8DC373B681F
:101B500013443B60DAF800309B1ACAF80030D9F819
:101B6000C437D9F8C817D9F8BC2701FB03F302FB27
:101B700003F3002B08DD049A023A02EB43031299A7
:101B800022F8021F9A42FAD16FF0010095E6D9F8C7
:101B9000C837D9F8C417D9F8BC2701FB03F302FBF7
:101BA00003F3002B08DD049A023A02EB4303002101
:101BB00022F8021F9A42FBD16FF006007DE6D9F8A9
:101BC000C437D9F8C817D9F8BC2701FB03F302FBC7
:101BD00003F3002B08DD049A023A02EB4303129947
:101BE00022F8021F9A42FAD14FF0FF3065E6D9F889
:101BF000C437D9F8C817D9F8BC2701FB03F302FB97
:101C000003F3002B08DD049A023A02EB43030021A0
:101C100022F8021F9A42FBD16FF00B004DE600BF85
:101C20000023C0E90023C0E902317047034642683F
:101C300001F01F01F0B4C1F11F009C6822FA00F00E
:101C40008A405A60621A002A4FEA50009A6001DB0B
:101C5000F0BC7047DE68032EA1EB04011DDC0024FC
:101C60005C60002E3BD01D68AF1901351D6015F872
:101C700001CC4CEA04042402BD425C60F5D1C6F1FB
:101C80000305ED00AC4002F1200504FA01F1EC403F
:101C9000204302EBC60200261CE01D682F466C1C88
:101CA0001C6017F8024B1F6024065C606F7844EAE2
:101CB0000744EF1C5C601F60AF7844EA07242F1DC7
:101CC0005C601F60ED7820322C4304FA01F1D440AF
:101CD000043E2043C3E90226F0BC596070473146F8
:101CE000D7E700BF10B404688368611AC3EBC1036F
:101CF000981A5DF8044B704730B1036823B15869F6
:101D0000003818BF012070474FF0FF30704700BF08
:101D1000002800F0D1800368002B00F0CD800A7805
:101D2000FF2A40F0C9802DE9F04F4C7804F0E00222
:101D3000E02A40F0BE80E20814F0180F1ABFD24328
:101D400002F0010202221A7091F801C0CCF3410C9A
:101D5000CCF10409C3F804904D78ED4305F001057A
:101D60009D608F783F09DF608C78C4F381041C612B
:101D70008E78C6F340065E6191F802E00EF0010E27
:101D8000C3F818E091F803E04FEA9E1E83F81CE0C8
:101D900091F80380C8F30118C3F8208091F80380FC
:101DA000C8F3C008C3F8248091F80380C8F3800802
:101DB000C3F8288091F80380032C08F00308C3F8C7
:101DC0002C8076D0B9F1040F73D00F2F71D04FF063
:101DD000DE0BDFF800A10BFB02FB4FF04A0818FBFB
:101DE00004B8D044BEF1010FC3F8348009D04FF0DD
:101DF0000008BEF1030FC3F8208002D14FF00108A4
:101E000001E04FF00208C0F8BC8702EB4208002A4C
:101E1000C0F8D09780F8D42708EB04094FEA420AAB
:101E2000274ACCF1030C52F82920C0F8C02708EB50
:101E30000C09244A32F919900CBF02220122C0F881
:101E4000C42799FBF2F2C0F8C82737B3BEF1030FDD
:101E50000CBF52460AF10102C4EB0414C8EB081E81
:101E6000CCEB0C1C7444F4443C44BC44164F37F98E
:101E70001440164F37F91220A21A043AA2EB450279
:101E80003244C0F8CC27124A32F91C20C2EB42146B
:101E900002EB8402D200C0F8B8271DB91D630420EC
:101EA000BDE8F08F8A8852BA92B206201A63BDE864
:101EB000F08F4FF0FF30F3E74FF0FF30704700BF77
:101EC00004480108E0460108BC450108CC46010869
:101ED000F4460108204301082DE9F04F8BB000289B
:101EE00000F02C8103680746002B00F02781D0F812
:101EF00004A0BAF1000F00F021811A7800921B7F34
:101F0000002A00F0A180032B00F00A81002306AD17
:101F1000CDE906130893082111232846099303935A
:101F2000FFF784FE0221CAF800002846FFF77EFE74
:101F3000CAF80400D7F8C4370293002B7CDD009B5D
:101F4000D7F8BC97CDF810A0002B0CBF4FF0040BB6
:101F50004FF0090B4FF000080597B9F1000F62DD53
:101F6000544600260C212846FFF760FE0921A06296
:101F70002846FFF75BFE0821E0622846FFF756FE81
:101F8000594620632846FFF751FE01216063284629
:101F9000FFF74CFEA063002800F085800221284650
:101FA000FFF744FE0121E06301902846FFF73EFE63
:101FB0000521206407462846FFF738FE05216064A6
:101FC0002846FFF733FE0021A064E1642846032180
:101FD000FFF72CFE032120652846FFF727FE03218B
:101FE00060652846FFF722FE019BA065002B7DD18E
:101FF000E06D6363C4E90A33C0F11400009B2066FE
:10200000002B6ED00020606601212846FFF70EFEEF
:102010000121A0662846FFF709FE0136B145E066BA
:1020200004F148049ED1029B08F1010898450AF189
:10203000900A92D1DDE904A7DAF80030C7F8D83762
:1020400003980BB0BDE8F08F032B5BD0009A06918C
:1020500006AD202309212846CDE9072209930393E1
:10206000FFF7E4FD0321CAF800002846FFF7DEFD74
:10207000D7F8BC97CAF80400B9F1000F7FF75AAF40
:102080000AF114040026A4F1100801212846FFF7E4
:10209000CDFD48F8040FA045F7D101364E4504F1B7
:1020A0001004F0D146E7C4E90F0005212846FFF7E8
:1020B000BDFD052160642846FFF7B8FD0521A06439
:1020C0002846FFF7B3FD0421E0642846FFF7AEFD84
:1020D0000321E0652846FFF7A9FD009B2066002B41
:1020E00090D101212846FFF7A1FD8CE7022B03D0F8
:1020F0000723E3650D2081E7002FF9D10823E3656D
:102100000C207BE7009A069106AD11230921284691
:10211000CDE9072209930393FFF788FD0521A2E784
:10212000002306ADCDE906130893082109232846AC
:1021300009930393FFF77AFD0121F4E64FF0FF3393
:1021400003937DE7274A2849284B02F5FE6010B427
:10215000106002F628005060254C02F51760906070
:1021600002F68C20C2E90513C2E9034002F2EF73C4
:10217000002102F6270203F8011F9342FBD11D4BF9
:10218000002103F5A47203F8011F9342FBD11A4BFF
:10219000002103F58E7203F8011F9342FBD1174B08
:1021A0001749002203F8012F8B42FBD1154B002168
:1021B00003F5527203F8011F9342FBD1124B002129
:1021C00003F5D95203F8011F9342FBD10F4B10497D
:1021D000002203F8012F8B42FBD102485DF8044B2B
:1021E000704700BFC47C00209CAC0020988A00206F
:1021F000BCC70020EB84002033860020BBC7002032
:10220000CBD900204F8700209BAC0020978A00206C
:102210009BAC0020704700BF2DE9F04F8FB00891B4
:10222000002800F01681D0F80090B9F1000F00F0FE
:10223000108143680993002B00F00B8183680A9397
:10224000002B00F00681C3680793002B00F001818A
:102250000169002900F0FD80D0F8BC37002501F5A8
:102260004672AB42CDE90C550B9230DD089B099AC2
:10227000DDF82CA003EBC306C3EB43180A9B03EB6A
:102280008808079B03F59057043702EB061644466F
:102290002836B8469B4657468246CDE90147009608
:1022A000A8F1040258464B46069100F0C1F948F8DF
:1022B000040FDAF8BC3706990135AB4206F148063F
:1022C00004F13E0407F118070BF5106BE5DCD9F8B3
:1022D000200000285DD0079B03F58054D4F8083215
:1022E000002B59DDD4F80C32002B55DD430800F0EB
:1022F000B380C2070CD5D1F83033002B40F09E805C
:10230000D1F84433D9F83420013332F9131004E002
:10231000D4E980319942B8BF19460CAD07982A46D6
:1023200002F036FAD9F82000C3071FD599F800301B
:10233000D4F80012002B64D103954510DDE90703A2
:10234000099E03EBC30206EB02120A9ED2F8882014
:10235000C3EB4313CDE9015206EB83030B9A0092C2
:102360003E334A4602F046FAD9F8200088B1D4E953
:1023700080319942B8BF19460C9A0D9BB2FA82F28D
:10238000B3FA83F3013A013BC4E98223C4E9801123
:1023900000200FB0BDE8F08FD4F80052002D15DDFD
:1023A000079B2F4F043B03EB85056FF0404602E08F
:1023B0009D421F600AD053F8042FB2F1404FF7DD61
:1023C000B2F1804FA8BF1E609D42F4D1D4F80452F0
:1023D000002D8BDD079B224F03F6FC0303EB8505E5
:1023E0006FF0404603E01F60AB423FF47FAF53F80D
:1023F000042FB2F1404FF6DDB2F1804FA8BF1E604E
:10240000F2E704954510DDE90706099A06EBC603D5
:1024100002EB0312C6EB4613D2F88820CDE9025234
:102420000B9A00920A9A02EB8303F83201923E3330
:102430004A4602F06BFBD9F8200097E7D1F8402319
:10244000D9F8343003EB4203B3F9301001EB41010A
:1024500063E74FF0FF309CE701200CAD66E700BF5B
:10246000010000C02DE9F04FDFF8C0A14FEAA3083A
:1024700003F003040AEB841986460AEB8404404601
:102480008BB01C28D4F800310193A8BF1C20D9F8C8
:102490000430033020EAE07003410793D9F8083094
:1024A00003410893D9F80C30B8F11F0FC34643FA23
:1024B00000F3A8BF4FF01F0B099300205B46069066
:1024C000C346CC4698460EE00AAC04EB850555F8A9
:1024D000104C002B40EA0400B8BF6442013A41F8B6
:1024E000044B00F08A805EF8043B23F0004424F0A3
:1024F000030423F00045002CE6D023F0004424F030
:102500000F0454B95CF82540BBF1000FBABFC8F105
:102510000005AC4044FA08F4DBE723F0004424F063
:102520003F046CB90AEB8505019FD5F8D04084FBC8
:102530000757A8F10304002C54DB47FA04F4C8E75A
:102540006C04B4F1006FBABF6C054FF004094FF092
:102550000009B4F1005FBCBFA40009F10209284DD5
:10256000284F294EB4F1804FBCBF640009F1010926
:10257000AC42264DC8BF3D460495254F254DD8BFDA
:102580002E46254DC8BF3D460395244D244FC8BF58
:102590002F460297234F244DC8BF3D46059525463B
:1025A00086FB0575049E3544264685FB0676059D0B
:1025B0002E44254686FB0575029F3D4485FB046439
:1025C000039D0AEB89062C44D6F8D05184FB05758F
:1025D000019FED0085FB0747D6F8F041A8EB040406
:1025E000002CAADA65426FF0004444FA05F6BE42B8
:1025F000FFF66FAF07FA05F46BE70BB0BDE8F08F9D
:102600009979825AA4F633D36321851028482EB0D5
:10261000B477F5FEA9BDA029591858FFF0CEC227FE
:102620008D496C238B40E9461BAA5759284801085D
:102630002DE9F04F93B098461C9B07905B690B9176
:10264000022B069200F010810D2303934FF0160920
:102650001C9B914D1B6CCDF81490002201335B0044
:102660000F921C9A0193D8F82030926809925B0867
:1026700008BF02321D9B08BF09925E1E099BDDF850
:10268000709002954FF0000BC3F1D2035C46DA461E
:102690000893049629E0D8F83430049DD9F83C60BA
:1026A00003EB440233F91430B2F90220D21A15F8C0
:1026B000013F0495671C924408461EB1029D95F89F
:1026C00000C06344089E019D03FB0563FFF7CAFE3B
:1026D000029B013302934BEA000B00B90F9C069B4F
:1026E0000F941B68534507DD3C46079B03EB8A01AB
:1026F000059B9C42CFD10F9C1E9B1E9A5C610023C0
:10270000C2E90233136053601361039B0B2B00F388
:10271000A580099B0399D8F834201191C3F1D20305
:10272000049302EB4103CDE90F11B3F92E30099365
:1027300001F10043173302EB43030A931D9ACDF8CE
:1027400008A001EB41031633D31805931C9B2433D7
:102750000D93DDE9092333F9021FDDF834A0DDF81C
:102760002C80DDF814908A1ACDE90913079B029991
:1027700003EB8104039B0893013327460C940393D6
:1027800095000FAE1446049A5AF8043F19F8011F39
:1027900002EBC303019A384602FB0133414622464D
:1027A000FFF760FEA8442F444BEA000B08B1089BDA
:1027B0003360043612ABB342E5D1224602990C9C39
:1027C00002EB42031944002A02914FEA420119DD4B
:1027D00002F1804301F180410B9A013B013902EB88
:1027E000830302EB8101043A154452F8040F206080
:1027F00053F8040F606051F8040FA060954204F193
:102800000C04F2D1069B029A1B6893423EDD059BA5
:1028100003330593039B0D2B9BD1DDF808A0069B8A
:102820001E98C3F800A01C9B1E9C9A69DDE90F311D
:10283000002A14BF022201220260119ABBFA8BF017
:102840008B426360B8BF0B469342B8BF1346013852
:10285000C4E90212236113B0BDE8F08FBBFA8BF01C
:10286000013813B0BDE8F08F1C9BD3F81890B9F174
:10287000000F0DD098F80030002B4FF003030393A6
:102880000CBF4FF008094FF00609E1E69246C6E793
:10289000CDF80C90DCE600BF384A01082DE9F04F76
:1028A00099B00E9107920093002800F042810168D0
:1028B000002900F03E8144680B94002C00F039811F
:1028C0008368002B00F03581C3680F93002B00F064
:1028D0003081009B002BC0F22C81229B229803EBBD
:1028E000C302239B120103EBC30302EBC302239B2E
:1028F0002244DB000893936BC0000C90002B40F047
:1029000070824A6B0C9B229923980B4408991B01F7
:10291000014403EBC1030B990B44D3E917130131B5
:102920000B44013332F9111032F91300229A0C9B37
:10293000239C0B9D1344089A1B01224403EBC20401
:102940002C4403EBC203E46A6400B4F5107FA8BF13
:102950004FF41074A04203F14003A8BF2046EB18C7
:10296000169006930F98239B139400EB830303F5B3
:102970008053A142A8BF21461193C3F8004200230F
:10298000159105931102079B179400EB02220D92FB
:1029900014AA03921B680E9A12910292039A059D43
:1029A00052F8041F06980591491B0392002950F81C
:1029B000042F069040F3428100980028C0F2B980AD
:1029C0009B4C04EBC2005B4207799A4850F8220006
:1029D00054F83220029C049213F007021EBF14F830
:1029E000013BC2F12006B3400D9E08BF134606EB23
:1029F0008505002F00F0EA818F4E06EB400E009E09
:102A0000012FA6EB020B00F03582B81E012800F260
:102A100090800498BBF10F0F00F10106C0F1200077
:102A200009964FF000090A90BA46764642DD67786B
:102A300014F802CB0194C2F118000CFA00F0C2F1B4
:102A4000100C07FA0CF73843ABF1100B03431032AC
:102A50000A2A2BDD378807F00F07C7F1200023FA79
:102A600000F0013036F810005FEA103C66D0C0F389
:102A70000317C0F303260F2FA2EB0C0203FA0CF38B
:102A800030463CD0002F3DD10F2E45D0002847D1F5
:102A90004A454EDB02392E46002946F8087B68601D
:102AA00040F382820A2A35467646D3DCBBF10F0F0B
:102AB000019CBCDC0BEB020000283ADDBBF1000FEF
:102AC00006DD14F8017BC2F1180C07FA0CF73B4342
:102AD000BBF1080F05DDC2F1100714F8012BBA4055
:102AE0001343421E4FF0004747FA02F213404FF0E3
:102AF0000B0900F10B024FF0000B0194A8E7BAF1AB
:102B0000030F20D003F0004C0F2E02F1FF3247EAF2
:102B10000C074FEA4303B9D1BAF1030F50D0304646
:102B2000013A03F000464A4540EA06004FEA4303F3
:102B3000B0DA4FF0FF3019B0BDE8F08F06EB400679
:102B4000D21BBB4084E7099F02EB0B0C002E18BF81
:102B500001376745EDDCBA4280F20382BF1A013FBC
:102B6000FC0804F101081094019CC2F1180CA04467
:102B700014F8017B07FA0CF7444543EA0703ACF16C
:102B8000080CF5D1109FABF1080402F1080CB4EB6E
:102B9000C70B0CEBC70209D504EB0C02541E4FF017
:102BA000004747FA04F423404FF0000B0A9F049CAF
:102BB000CDF8048023FA07F7121B0F37A34061E713
:102BC000099C0BEB02008442B3DC944240F3CC81BD
:102BD0000498019CA0EB02084FEAD80808F1010C08
:102BE000A444C2F1180614F8010BB040644543EA4E
:102BF0000003A6F10806F6D1ABF1080002F10804C3
:102C0000B0EBC80B04EBC80208D50219501E4FF0F8
:102C1000004444FA00F003404FF0000B0A98049C73
:102C2000CDF804C023FA00F0121B0F30A3402DE7AB
:102C3000B04A0108B04B0108304C01080023009A4B
:102C400093423FF776AFD21A009207990A6813446D
:102C5000029A02EBE302029203F00703039A0B606D
:102C600017A991427FF49AAE009A002A40F3778127
:102C700022990C9A23980A4408991201014402EB04
:102C8000C1020B9911445B42CA6EC34951F82290AC
:102C9000C24913F0070351F82200029A40F0BB80AA
:102CA00001921946139A009CC2F50F7E0EF1010E97
:102CB000BEF1000FA4EB030B40F351810D9CDFF834
:102CC000E4A24FF0000C04EB8202C0F1200864463D
:102CD000BBF10F0F40F3A7800198457810F8026B05
:102CE0000190C3F1180006FA00F0C3F11006B540D8
:102CF0002843ABF1100B0143103302F1100003E045
:102D0000092B00F11000E3DD21FA08F24A441AF819
:102D10000220150912F00807A3EB121301FA05F1BE
:102D200005D001F00047013B47F00107490012F0D0
:102D3000040605D001F00046013B46F001064900BB
:102D400012F0020505D001F00045013B45F00105F8
:102D5000490012F0010205D001F00042013B42F0AF
:102D600001024900634507DB0434A64540E90252ED
:102D700040E904760246C3DC119AD2F800321C44C2
:102D8000B4F5107FC2F8004210DA239A089B0F991D
:102D9000134404EB8314129B03F510620A4401EB05
:102DA0008403002143F8041B9342FBD1079A009B44
:102DB000106802990344184603F0070313600E9B42
:102DC00001EBE000C01A19B0BDE8F08F2B1D002206
:102DD00045F8272043F827200237B942F7DC13468D
:102DE00033E7D36B022B7FF48CAD136C002B40F0D8
:102DF000BE80D26D496B0132A3F1AA3383FB02037B
:102E0000A3EBE27301EB43014FF41070B1F92E1004
:102E100001EB41018AE51446C3F1200214F8011BBD
:102E2000019491403EE703EB0B000028A4DDBBF1C9
:102E3000000F07DD019D15F8016B0195C3F118071F
:102E4000BE403143BBF1080F07DD019DC3F1100601
:102E500015F8013B0195B3401943431E4FF000455F
:102E600045FA03F319404FF00A0C00F10A034FF042
:102E7000000B42E74A4E36F810C00CF00F0CCCF1B4
:102E8000200C4FF000082846BBF10F0F43DD667899
:102E900014F8025BC2F11807BD40C2F11007BE4032
:102EA0003543ABF1100B2B43103200F1080601E063
:102EB0000A2AE9DD23FA0CF001303EF81000050B78
:102EC000AB4010F0F00FC0F3031503F00047A2EB86
:102ED00010321BBF2F435B002F4602F1FF3210F46C
:102EE000706FC0F3032503F0004002D005435B0080
:102EF000013A4245A1F102013046FFF61AAE00291F
:102F000046E9027506F10806D2DCA2EB0803009A36
:102F10005B44D31A4DE00BEB0205002D7FF709AEA1
:102F2000BBF1000F05DD14F8016BC2F11807BE40BC
:102F30003343BBF1080F05DDC2F1100614F8012B75
:102F4000B24013436A1E4FF0004646FA02F21340A5
:102F50004FF00B0805F10B024FF0000BA5E7002422
:102F60000AE7DDF8048021E6DDF804C056E60B78B8
:102F70004A6B13BB22990C9B23980B4408991B01A5
:102F8000014403EBC1030B990B444FF41070DB6D4C
:102F9000013332F91310C9E4584A0108504A0108B4
:102FA000304C0108604A0108A2EB0903009A5B4417
:102FB000D31A002BBFF643AEBBE5B2F93410B2F919
:102FC00036305B1AB2F90C104FF4107001EB43016C
:102FD000ACE400BF844693BB12F001002ED0DCF8B5
:102FE0008001DCF88012DCF88023404249425242E2
:102FF000CCF88001CCF88012CCF88023DCF8801467
:10300000DCF880251846DCF88036494252425B42A3
:10301000CCF88014CCF88025DCF88010DCF8802710
:10302000CCF88036DCF88038524249425B42CCF81A
:103030008010CCF88027CCF880387047704712F0A9
:1030400001002DE9F0434CD04FF0004828FA03F876
:1030500008F1FF38C3F11F070CF180060CF5106969
:10306000002056F8804C44FA07F2B2EBE47F4FEAB6
:10307000E47518BF88EA050404FA03F546F8805C95
:10308000DCF8804085EAE572C4F1000EA2EBE5753C
:103090004EFA07F2B2EBEE7F4FEAEE7418BF88EA01
:1030A000040E0EFA03F4CCF8804084EAE472A2EB3A
:1030B000E4740A682C4342FA07F5B5EBE27F4FEA65
:1030C000E27E18BF88EA0E020CF5807C9A40CC455F
:1030D00041F8042B06F5807640EA0400C1D1BDE832
:1030E000F0834FF00047DF40013FC3F11F060CF1B2
:1030F00080020CF5106E52F8804C44FA06F5B5EBE0
:10310000E47F4FEAE47818BF87EA080404FA03F57D
:1031100042F8805CDCF8804085EAE578A8EBE57849
:1031200044FA06F5B5EBE47F4FEAE47918BF87EA85
:1031300009049C40CCF8804084EAE475A5EBE47572
:103140000C6845EA080544FA06F8B8EBE47F4FEA54
:10315000E47918BF87EA09040CF5807C9C40F445AB
:1031600041F8044B02F5807240EA0500C3D1BDE886
:10317000F08300BF022A2DE9F043464B1ED002EB3C
:10318000C20203EB021C0CF1480601F1440E0CF1E3
:103190008C0C00F1240750F8043B5CF8044956F805
:1031A000045B1A4685FB028241F8042B84FB03234F
:1031B00087424EF80439EED1BDE8F0838268D3F837
:1031C00038C18CFB02428469D3F8205185FB04642A
:1031D00022440A60D3F83C71426887FB0242C4690A
:1031E000D3F8245185FB046422444A600268D3F872
:1031F000406186FB0242056AD3F8284184FB05E55D
:103200002A448A600268D3F84451964685FB0E2E04
:10321000026AD3F82C4184FB02827244CA6042687D
:10322000D3F848E191468EFB0949C469D3F83021AF
:1032300082FB048409EB04020A618268D3F84C81A2
:1032400088FB0242D3F83441836984FB03931A4418
:103250004A6143698CFB03238B61036987FB03236A
:10326000CB61C36886FB03230B62C36885FB032322
:103270004B6203698EFB03238B62426988FB023237
:103280000023C1E91033C1E90E33C1E90C33CA622E
:10329000BDE8F083547401082DE9F04FC7B01B92CC
:1032A000002800F08F860368002B00F08B864468AE
:1032B0001D94002C00F08686C6680D96002E00F046
:1032C000818640690E90002800F07C8617461A78A7
:1032D0001E91002A8C465A6BC34801EBC1030CBFF8
:1032E000082106211B0132F9111007EBC70203EB7D
:1032F000C2032344CC1780FB0151C4EBA10109B2E6
:103300001891D96B6446FD00E40002291C951F94B6
:1033100000F0368607F5906340F2262156F82330F8
:103320008B4240F3038313020F9306EB02231793A0
:1033300040F23623109320230993F8221F231A44C6
:10334000179B03EBC2020292A84A116801915168CF
:10335000039191680491D1680591116906915169B1
:10336000079191690891D1690A91D2E90E01D2E9D8
:1033700008C7D2E90A65D2E90C4BCDE90B01D3E9C4
:1033800011820199C64681FB0E9E0398914680FBEF
:1033900009A9AEEB090E4FEA4E0E0199C3F844E0BD
:1033A00081FB02E280FB08E84244D3F840800499A4
:1033B00052009A64C646DA6C81FB0E9E05989146CF
:1033C00080FB09A9AEEB090E4FEA4E0EC3F840E0B0
:1033D00081FB02E280FB08E84244D3F83C80069976
:1033E0005200DA64C6461A6D81FB0E9E079891461C
:1033F00080FB09A9AEEB090E4FEA4E0EC3F83CE084
:1034000081FB02E280FB08E84244D3F83880089947
:1034100052001A65C6465A6D81FB0E9E0A98914667
:1034200080FB09A9AEEB090E4FEA4E0EC3F838E057
:1034300081FB02E280FB08E84244D3F8348052006A
:103440005A65C6469A6D8CFB0E9E914687FB09A96C
:10345000AEEB090E4FEA4E0EC3F834E08CFB02E2ED
:1034600087FB08E84244D3F8308052009A65C6468C
:10347000DA6D86FB0E9E914685FB09A9AEEB090E1F
:103480004FEA4E0EC3F830E086FB02E285FB08E807
:103490004244D3F82C805200DA65C6461A6E84FB8B
:1034A0000E9E91468BFB09A9AEEB090E4FEA4E0E1C
:1034B000C3F82CE084FB02E28BFB08E84244D3F81B
:1034C00028800B9852001A66C6465A6E80FB0E9EE4
:1034D0000C99914681FB09A9AEEB090E4FEA4E0EFD
:1034E000C3F828E080FB02E281FB08E84244520076
:1034F0005A66029A48339A427FF441AFDDE91E23AF
:103500001344DDE91B121B010A4403EBC2031D9A9D
:1035100013441B6C1B9C0D9A109802EB840101F55F
:103520008051DDE90E56D1F80022D1F808720E97CD
:103530009042B8BF1046002BC1F80002189908BF8E
:103540000021024618912849113281FB0201D2174D
:10355000C2EBA1020D9205EB840202F580501C9A89
:103560002090111905EBC11202F59054D0F8002BF0
:103570001592D0F8082B0C92D0F8102B09981994BA
:103580002E44002816960A9240F31885DDE91E5253
:103590002A44120102EBC1021D9903968A18062FD4
:1035A0004FF000011292C7F107021A92C8BF0A46F3
:1035B00007EE902A04F124020292179A0891A2F1D0
:1035C0000C0406EB800214920191129A0299D26BBC
:1035D0000592243904915BB1189B01998B42C8BFB5
:1035E0000022059204E000BF398EE338C47201085E
:1035F0000A9B019A934200F32F820C9B059A139326
:1036000043EA02050E9B062B04F1480311934FF089
:103610000000194600F31182029EDDF868C02BAF4E
:1036200003468A6842FA0CF2D31A4A6842FA0CF24C
:10363000181AD31A56F8042D3862083942FA0CF2D7
:103640008C4247F8043D3260EBD125982B9A2299A1
:10365000249BDDF898A0239E52108046289806925D
:10366000DDE929274C10C0EB610E27990B94891ACC
:10367000A3EB0A090791A9EB0709CC4903EB0A0060
:1036800081FB08482799A6EB010CACEB020CC7495B
:1036900081FB0C4CC649044681FB04B40F943B44A7
:1036A000C44C84FB03B3A7EB0A0781FB07A7109761
:1036B00084FB00A004F1705404F54C24DDF81CA038
:1036C00004F2CB2484FB0ABABB4932440F4681FB87
:1036D00002B227990E4484FB06B6079987FB01B115
:1036E0000B9C289F04EB670B0F9C109F5B00400016
:1036F0004900C1EB460103EB44030BEB4806C0EB6A
:103700004700ABEB480B520002EB4A021F180EEBCE
:10371000690AAEEB090406EB03095B449B1AA1EBB3
:10372000020E07932A930BEB0003ABEB070BF71B7F
:103730000B447744064424932F982797ABEB0E0352
:103740002D9F259391440AEB4C03AAEB4C02239343
:1037500029923B1A319A0698CDF88890A0EB02097D
:103760002F9A2D98339F2694761A2E9C28961044D3
:10377000329E309ADF1B0B97911B2C9F8B4AA046E1
:1037800082FB0838309EA7EB060E329EAEEB060E8B
:1037900082FB0E3E864E834686FB0B3B2D9A339B67
:1037A000844CD31884FB0323339A0F932F9BA2EBF3
:1037B000030C86FB0C2C84FB002004F1705404F5F0
:1037C0004C248A4604F2CB2484FB0A2A329A7A4B90
:1037D000BA1883FB0262309E374484FB076783FB81
:1037E0000161069B319E0F9C03EB6606400063005F
:1037F0000B9CC0EB4C0003EB4B0306EB480C520058
:10380000A6EB4806490002EB4A02C1EB470103EB75
:103810000008A9EB04070CEB030B33442F979F1A06
:10382000331809EB640A0B44A1EB0209A6EB080666
:10383000ACEB08082D93844408EB09039344ACEBEC
:103840000101A6EB09063093AAEB4E020AEB4E03E8
:10385000CDF8ACB0339731912E962C933292002D47
:1038600040F08880039A5549554BDDF810C0DDF8CB
:103870001CA001F160080DF1A80E10462E46A2F51D
:10388000906905E0DEF8207058F8043D5EF804AD5C
:1038900083FB074707EBAA03DCF800404CF8043B26
:1038A00051F8083CA7EBAA07C4F1000AAAEB070AE3
:1038B0009B468AFB0B3B51F8043C07EB8B078AFBCA
:1038C00003B3C4EB830383EAE37A87EAE77442F83D
:1038D0002670A4EBE774C0F88038AAEBE37A80384E
:1038E00044EA0A04814545EA040501F1080106F1AC
:1038F0002006C7D1029B039E049924330293019BA7
:103900001A4601330193304617EE903A0436039677
:10391000FFF760FB089B119C284303430893149B0B
:10392000B34200F09D80129B1B6C4EE6073380FB78
:103930000320DB17C3EBA00303EBC30252000832E2
:1039400010925A1C0992DA00DDE91B0101440802B9
:103950000F900D98002B00EB012017903FF7EFAC74
:10396000DDE91E2313441B011D9A03EBC10313441D
:103970001B6CCFE5049C139ADFF84C900DF1D00836
:1039800020464146FFF7F6FB059B0E4ADDF80CA0EA
:103990000B4903EBC303002502EB031CA6462AAE2A
:1039A000079C504644222B4615E000BFA1EBD96E80
:1039B0008BBE0D627E1A3A16322E0E7E5C6D0108A9
:1039C0005CEB270B54740108BC6D0108376A59F889
:1039D000041D56F8044D81FB07B707EBA4014EF810
:1039E000041B5CF82310C7EBA4078B4687FB0B1B5B
:1039F00058F823405CF80210A3444FEA8B0B87FB76
:103A0000014158F802402144DC0189004AF804B021
:103A10008BEAEB7781EAE174A7EBEB77043AA4EB4E
:103A2000E1742743202AC0F8801845EA070503F10E
:103A30000103A0F18000C9D15CE72BAE02468B6880
:103A40009A1A4B680839101A8C42A3EB02023062B2
:103A500046F8042DF3D1F8E50023059D1393D1E535
:103A6000099B179A03EBC30302EBC3021792199A3F
:103A700002EB830319930D99099A914240F39B82BB
:103A8000169C0E98179E219204EB820303F5C073D7
:103A9000029304F5C07303EB810306281999179369
:103AA000C0F107031A93C8BF002306EE103A04368C
:103AB000243134AB0B910F93B246029BA3F5C07B2C
:103AC0000B9BDDE90942A3F124010C9BA242C8BF74
:103AD000002307EE103A0E9B062B07EE901A06EE17
:103AE00090BAAAF1040013DC1A9C002250F822308C
:103AF000234140F822305AF8223023414AF822303C
:103B000051F8043B02322341122A41F8043CEDD122
:103B1000DAF83820DAF82C50DAF82030DAF8140025
:103B2000DAF80840BA4EAD1A591BA0EB010CA4EB11
:103B30000C035AF8044C891AE01A5B1A40105B1007
:103B4000374686FB0C4C00EB650606EB4C04401B2D
:103B50000194A6EB4C0687FB014103EB620404EBE6
:103B60004105AC4F490087FB05C5AB4F9B1AAD0023
:103B700087FB0323641A9A00A84981FB0434DAF80E
:103B80003C90DAF83030DAF81810019FA3EB090CFA
:103B9000DAF82430A3EB0C03A1EB0308A3EB090E26
:103BA0002F44DAF80C30DAF800102297019FA3EBCB
:103BB00008037F1BC91A8518A3EB0E03801A06EBB6
:103BC0008402A6EB8406269049105B102797239564
:103BD000CDE924268E4880FB082801EB6C0505EB17
:103BE0004806A1EB0C01A5EB480580FB0E2E03EB6C
:103BF000690404EB4E0787484FEA4E0E80FB072707
:103C00008548A3EB0903BF0080FB03238348A4EB93
:103C10000E049A0080FB0434DAF840C0DAF834303D
:103C2000DAF81C00A3EB0C0EDAF82830A3EB0E0335
:103C3000A0EB0309A3EB0C08DAF81030DAF8040063
:103C4000A3EB0903C01AA3EB08035B100193F3195C
:103C5000109328938B18F61B891A1193299305EB5F
:103C60008403A5EB84052C9140102D961293CDE989
:103C70002A35674981FB092900EB6E0505EB4904EC
:103C8000A0EB0E00A5EB490581FB0828019B614FC5
:103C900003EB6C0202EB48014FEA480887FB016125
:103CA0005D4FA3EB0C03890087FB03635B4FA2EB23
:103CB00008069B0087FB0626C718C01A05EB86037B
:103CC000A5EB86050F9E3290CDE9303517EE102A10
:103CD000631A651817EE900A31462F973393504FA9
:103CE000FFF748FA0DF1940C0023CDF84CA00DF12C
:103CF000880E0193E246149556F8041BDEF80C304A
:103D000018468B00CBF80030B36841F3407282EA6A
:103D10008101039143F340749900CBF8801184EA48
:103D20008303049357F8043F83FB0010736900EB8F
:103D30008300C517DAF80830CBF80003059580EA50
:103D4000E07519460695FB6883FB0101336A01EBB8
:103D50008301CBF88014CD175AF8043DB86981EA85
:103D6000E17180FB0383DEF824008046386880FB25
:103D70000898DEF800008446F06A434403EB8003B1
:103D8000CBF800364FEAE37983EAE373786A079366
:103D90000EF1040E80FB0C8CDAF82400FB688046E0
:103DA00083FB08080398079B821A0498001B0243B0
:103DB000DDE90504201A491B02430A43A3EB09036A
:103DC0001A43B36BC4440CEB830383EAE371CBF86F
:103DD0008037A1EBE3731A43019B13430193029BCA
:103DE0000BF1800B5B4587D1109B0B9A9B1042F81F
:103DF000243C119B9B1042F8203C129B9B1042F8E4
:103E00001C3CDDE913A5A2F118032EA90CE000BFAC
:103E1000A1EBD96E1D75A37B9A79825A83FB202171
:103E20007075010851F8045FAD1043F8045B9342CC
:103E3000F8D124330B93099B029C1A4601330434B6
:103E4000099317EE901A16EE103A16EE900A0294A5
:103E5000FFF7C0F8019B03431846089B03430893F0
:103E6000179BA3420AF1480A7FF427AE219A0D9BC3
:103E70009B1A199A03EBC30302EB83031993159B57
:103E80000D9EB34240F3948034ABDDF82080DDF822
:103E900064900F9346AD00240F9F0A9B0C9A3946FD
:103EA000B342C8BF00224846FFF764F9169B394663
:103EB00046F3000A06F0010E03EB8607A9F1040C95
:103EC00000200A6892003A604B688AEA83037344D0
:103ED00082EAE27BABEBE27B1A43104383EAE372B4
:103EE000C7F880300831A2EBE3734BEA030B8D4235
:103EF0004CF8044F07F5807748EA0B08E1D10D9B99
:103F0000002818BF33460D93159B0136B34209F1C3
:103F10002409C1D1CDF82080159B1F2B10DCDDE9D1
:103F20001503002103EB8002002342F82310203305
:103F3000B3F5107FF9D10130202802F10402F3D14A
:103F4000DDE91E231344DDE91B121B010A4403EBC8
:103F5000C2031D9A20980D99C0F8001B1A441346FD
:103F6000089AD96BB2FA82F2189BC0F8081B013A82
:103F7000C0F8103BC0F8182B002047B0BDE8F08F08
:103F80001B6C09934BB1189909914B1E03EBC302AB
:103F9000520008321092DA00D6E413020F930D9B00
:103FA00003EB0223082217931092099BFFF7B2BA82
:103FB0000D9B1593B0E7099B0D9360E70023CDE9B6
:103FC000083358E54FF0FF30D7E700BF2DE9F04F39
:103FD0002DED028B95B0DDF880A0219C0292079018
:103FE000002800F0B483056808EE101A0146002D81
:103FF00000F0AD8340680190002800F0A883896834
:104000000091002900F0A38312681344D91D48BF12
:1040100003F10E01C91018EE102A08A8FDF700FEE2
:10402000029B1968002940F02E812B78002B40F06C
:104030009A800AEBCA0304EBC4021B0103EBC20320
:10404000019A1344C04A586BD96B12F8109002EBD6
:104050004005E200069202294FEACA026D780392F7
:1040600000F0CF82BAF1000F00F011832301019A12
:104070000833D718D358002B00F06C81C4EB4412DE
:1040800000985200531E05328118CAEB4A1203EB06
:10409000820202440344600105904FEA4A100490F2
:1040A00013F8010F02F8010F8B42F9D17B68002B46
:1040B00000F07081049B059A0099A3EB0A03121B80
:1040C0009B0003EB420301EB42020B44917999718F
:1040D000D179D971117A1972517A5972927A9A7288
:1040E000BB68002B00F07381049B059A0099A3EB39
:1040F0000A03121B9B0003EB420301EB42020B4439
:10410000D17AD972117B1973517B5973917B997351
:10411000D27BDA73FB68002B00F07681049B059A52
:104120000099A3EB0A03121B9B0003EB420301EB74
:1041300042020B44117C1974517C5974917C99741E
:10414000D17CD974127D1A75049B059AA3EB0A03DE
:10415000121B9B0003EB4203009A1A4413460022F1
:104160005A759A75A2E00AEBCA0304EBC4021B015C
:1041700003EBC203019A2D6A1344E200069215F084
:1041800001054FEACA025B6B039202D0012C00F0DA
:104190000D82B3F5C87F80F2AC806C481A1180FBA9
:1041A0000210D917C1EB600909EB8900121A4FF010
:1041B00000080D92C3F3810203F003030E920F93E4
:1041C00041464646039B03EB0A00E30023440001FB
:1041D00000EBC300019B184406EB4606C26B022AA3
:1041E00000F04381584B03EB860393F8226093F869
:1041F00021B0129693F823601396CDF844B093F84B
:104200002060002D00F09E80012C00F0B381039B04
:104210000698534420441B0103EBC0030198034458
:10422000022A596600F03B816201CAEB4A180592E6
:104230004FEA4A12C4EB44134FEA88080492009AEA
:10424000219408EB4308424400231F46CB46144602
:10425000002E0EDD009A1E44434402EB030935197B
:10426000594608A8FDF7E2FC09F8010BA945F7D16A
:1042700033460137042F0AD00CAA52F827B010AAEF
:1042800052F82760E4E708A8FDF7D0FCCDE6049BD0
:10429000219C059AA3EB0A03121B9B0003EB42032C
:1042A000009A1A44134600229A755A75039B069A7F
:1042B000534422441B0103EBC203019A1A4404EB4A
:1042C0004A04936A079A04F5FC7418EE101A42F82F
:1042D0002430029C08A82268FDF704FD23681844D6
:1042E00000F007032360C01015B0BDEC028BBDE8E1
:1042F000F08FB3F5FA7FC0F2A180039A1449A3F5B9
:10430000FA73A1FB03015244E0002044120102EBC6
:10431000C002019802444FEA5109D2F8408021F0CE
:10432000010202EB51029B1A0022CDE90E220D93ED
:10433000B8F1000F00F0EE81CDE90D939046012118
:1043400002263FE741666FE7C06D01086766666653
:10435000ABAAAAAAC4EB44135B00CAEB4A1203F14E
:10436000FF385E1D009B08EB820806EB820698442E
:104370001E44630105934FEA4A130493494608A873
:10438000FDF754FC08F8010FB045F7D17B68002B0E
:104390007FF490AE059B049A1B1B5B00A2EB0A0204
:1043A00003F1050803F10A06009B08EB820806EBFF
:1043B000820698441E44494608A8FDF737FC08F8D1
:1043C000010FB045F7D1BB68002B7FF48DAE059B84
:1043D000049A1B1B5B00A2EB0A0203F10A0803F11B
:1043E0000F06009B08EB820806EB820698441E44E9
:1043F000294608A8FDF71AFC08F8010FB045F7D1C7
:10440000FB68002B7FF48AAE059B049A1B1B5B00A4
:10441000A2EB0A0203F10F0703F11406009B07EB5E
:10442000820706EB82061F441E44294608A8FDF7B2
:10443000FDFB07F8010FB742F7D185E6A3F5C87376
:10444000C4499A10A1FB020103F003030E9321F06B
:10445000030303EB9103D31A0D9300234FEA910951
:104460000F93984619460126ACE6036C002B18BF43
:104470000227B94B08BF01273E4403EB860393F89C
:10448000226093F821B0129693F823601396CDF82A
:1044900044B093F82060002D7FF4B6AE4166039BD4
:1044A000069A534422441B0103EBC203019A1344AE
:1044B0001F6C002F00F00A81C4EB44125200CAEBBB
:1044C0004A13501E551D00EB830005EB8305009B2E
:1044D0001E181D44630105934FEA4A13049349468D
:1044E00008A8FDF7A3FB06F8010FAE42F7D1DDF8EF
:1044F00034905E4601274FF0030B049B059A2194EC
:10450000A3EB0A03121B9B0003EB4208009B03EB87
:10451000080214465B46C346C846002E20DD1E44F2
:10452000009A03EB43035B4406EB460502EB0309E9
:104530002544414608A8FDF779FB414689F8170054
:1045400008A8FDF773FB414689F8180008A8FDF795
:104550006DFB09F1030989F81600A945E9D1334635
:104560000137042F3CD00CAA52F8278010AA52F829
:104570002760D2E7009800F1F80300F5847E4846F2
:1045800043F8040F354673450DF1300C10AF1D6133
:1045900008D05CF8040F43F8040F57F8045F1D615E
:1045A0007345F6D1009BC3F8F88030E6B3F5B47FCD
:1045B00003F001084FEA6300C0F2AF80F32800F374
:1045C000D180A0F1B40300220F921146C3F38102FF
:1045D0000D9203F003020E924FEA23190426F1E52F
:1045E000219C049B059AA3EB0A03121B9B0003EB7F
:1045F0004203009A1A441346002283F83B209A870C
:1046000054E61B6C002B68D1620105924FEA4A12F6
:10461000049203EB4308049B059AA3EB0A039B0057
:10462000121B03EB42073E46009BB84412369844E7
:104630001E44494608A8FDF7F9FA494688F81700CC
:1046400008A8FDF7F3FA494688F8180008A8FDF70E
:10465000EDFA08F1030888F81600B045E9D1009B8F
:104660001F44294608A8FDF7E1FA294687F82900E2
:1046700008A8FDF7DBFA294687F82A0008A8FDF705
:10468000D5FA033787F82800B742EAD1A9E7C4EB87
:104690004416009B760006F1FF3806F10A0798449D
:1046A0001F44494608A8FDF7C1FA08F8010FB845AC
:1046B000F7D1009B143633441E46294608A8FDF75F
:1046C000B5FA08F8010FB045F7D1EFE5630105939E
:1046D0004FEA4A13BB4604930FE7C4EB44135B0055
:1046E000CAEB4A125F1EDE1D009B07EB820706EB3A
:1046F00082061F441E44630105934FEA4A13049344
:10470000494608A8FDF792FA07F8010FB742F7D11A
:1047100003237EE70121022654E51049DB1781FBC4
:104720000021C3EBE1090E4A09EBC903A0EB8303A7
:1047300082FB0302A2EBE3720D9202EB4202A3EBB7
:1047400042030E9300230F93194603263AE54FF0D8
:10475000FF30C9E5CDCCCCCCC06D0108398EE33833
:10476000ABAAAA2A094AA0F1F403A2FB032121F073
:10477000010202EB51029B1A0D9300234FEA5109EB
:10478000CDE90E33194605261CE500BFABAAAAAA3F
:1047900000292DE9F04129DD0026A0F1040C00F6E6
:1047A000FC04374635465CF8040F54F804EFA0EBE0
:1047B0000E037044CCF800002360DCF80080013563
:1047C00083EAE37088EAE87EAEEBE87EA0EBE37371
:1047D000A94247EA0E0746EA0306E4D1D2E90013EC
:1047E00039433343C2E90013BDE8F0810026374660
:1047F000F4E700BF2DE9F04F99B0229C0E90D4F859
:1048000018B0BBF1000F40F08180E56A566B239829
:1048100067696A1CC0EBC00036F91240B94A02EB66
:10482000800223980192BD42A1EB040122464FEA87
:10483000C00080F26581002940F36281DF192B44BA
:1048400005F10045013506EB4508AF4D02972818E4
:10485000039013F8010F0728DA463ED0019D38F97E
:1048600002EF55F82060AD69AEEB0407002FA5EB11
:1048700006053EDD0E9802F18044013CCF1B00EBA3
:10488000840402EB010C01E0002939D054F8042F14
:10489000104685FB0090800080EAE079A9EBE07982
:1048A000C4F800094AEA090A86FB0202920082EA79
:1048B000E2700139A0EBE270B94222604BEA000BD2
:1048C000ACEB0102E0D102998B4219D0C7B113F8C9
:1048D000010F072874463946C0D18B48239D38F90B
:1048E00002EF50F835600398AEEB0407002F4568DF
:1048F000C0DC0298834203D00F46E8E7DDF804A04D
:10490000259BC3E900BA19B0BDE8F08F0BF1FF3069
:10491000012808D94FF0000A259BD346C3E900BA05
:1049200019B0BDE8F08FD4F828E0576B75482469BA
:1049300007EB4E02A645B2F9305005EB4502A1EB5C
:1049400002062399C1EBC10100EB8101239810916C
:104950000EF1010C04F101014FEAC000DADA022E77
:10496000D8DD0EF10044183407EB44040CEB4C0C7A
:104970000C940CF116041C1901EB410113330B4488
:104980001193614B0B9403444FF0000A0F93D346ED
:104990000B9C109FDDF88CC015A812A9964614F840
:1049A000013F072B00F09B8057F82330BA690B605A
:1049B000D31A40F8043B18AB984201F10401EED140
:1049C0000C9B33F9021F4D1B002DCDE90C317246B3
:1049D00040F38C8005EB4505731B0393159B0493F3
:1049E000129B0593169B0693139B0793179B0893A3
:1049F000149B09930E9BCDF804A003EB8E0593192D
:104A00000A9302E0022E7FF779AF2B6804981A46CA
:104A100080FB02129200C5F800294FEAE27805985F
:104A200082EAE27280FB03139B0069682B604FEA05
:104A3000E37C83EAE373069F0293084687FB00400A
:104A40008000C5F804094FEAE079079F80EAE0702A
:104A500087FB0141AC68089B890069604FEAE17EF1
:104A6000274681EAE17183FB07A7BF00A0EB09009D
:104A7000A2EB0802024387EAE770019BC5F80879B8
:104A8000A0EBE770024313430193099B83FB0424CB
:104A9000029BA400A1EB0E01A3EB0C0384EAE472D9
:104AA000A2EBE4720B4313434BEA030B0A9BAC608B
:104AB000033E9A1B039B9E4205F10C05A2D10B9B62
:104AC0001199DDF804A08B423FF41AAF03330B9326
:104AD000039B022B7FF714AF0D9D039E58E70A4BF3
:104AE00053F83C200F9B0A605B6862E70B9B1199AF
:104AF0008B423FF405AF0B9B039603330B93EBE71D
:104B0000DA46FDE61C7401080C7301082DE9F04F2C
:104B1000A1B0DDE92A852C68AC462C9D05EB440448
:104B2000924D05EB841403940CF1100900244FF00E
:104B3000010E5CF8045FDCF810700EFA05F5002F2A
:104B400005F1FF350ADD274409AE06EB840406EBC8
:104B5000870644F8045BB442FBD13C46CC45E8D11F
:104B6000D8F81840002C7DD1566BD8F82C20D8F8F6
:104B700014500295571C03EB020936F91750A1EBAC
:104B8000050B0121C3F10103CDE91E1109A901EBB8
:104B9000820104932C9A764B019103EBC203CDE979
:104BA000050306EB470A2146049B029A4B449A42AE
:104BB00047DB019819F8012F50F8043F0190934208
:104BC00045D0531C12F0010F4FEA6303039A45D0FE
:104BD00052F8236013461F68BAF902E053460AF1FF
:104BE000020AB3F90030AEEB030EDE45A8BFDE4685
:104BF000BEF1000F22DD059B0EEB050803EB8500DF
:104C000003EB880C50F8043B87FB03239B0083EAEB
:104C1000E375C0F8FC38A5EBE37350F8042C194396
:104C200086FB0232930083EAE37240F8043C60455D
:104C3000A2EBE37344EA0304E4D14546BBEB0E0B5D
:104C4000B2D12E9BC3E9004121B0BDE8F08F484BA3
:104C50002C9A53F83260069B5F68BDE7166802EB3A
:104C60008303B8E7526B173301930123CDE9068222
:104C700015932C9A3E4B002103EBC2030C46049182
:104C8000059300F51068069A079ED36952F8045FF1
:104C9000069206EB430203F1010CB2F93070029563
:104CA00003229646049A654517FB0E2250DB03F15A
:104CB0000043183306EB430E0DF124090CEB4C03B3
:104CC000019DED5C59F82C30AB4235D06B1CED07E3
:104CD0004FEA630337D5039E56F8235033461E68C8
:104CE0003EF902AFAAEB0707002F0CF1010C1EDD05
:104CF00007EB4707174450F8223086FB03B39B00AD
:104D000048F8223083EAE37BABEBE373194350F8B6
:104D1000223085FB03B39B0040F8223083EAE37B1B
:104D20000332ABEBE373BA4244EA0304E3D1029BE0
:104D300063450DDB5746C1E70D4B2C9D53F83550AD
:104D4000059B5E68CCE7039D05EB83032D68C6E7F2
:104D5000049B019A01330132032B0493019292D1F7
:104D60002E9BC3E9004121B0BDE8F08F1C73010800
:104D70000C730108002800F08680C368002B00F047
:104D800082802DE9F04F466985B0002E78D0876982
:104D9000002F75D0D0F8BC3707F50054022BD4F89B
:104DA00000220D4631D0DFF8E4A003964FF0000951
:104DB00006F58058039BD8F8186B009609F0010B94
:104DC00003EBC91039465B4600F062F8D4F80012D4
:104DD0000BEB0B1301EB83112846524607EB8101C5
:104DE00000F09CFBD4F8002209F10109A2EB0B02B0
:104DF00002F00702B9F1120FC4F8002205F14005D4
:104E0000D8D1002005B0BDE8F08F06F5106307F19A
:104E1000800A03934FF0000906F5805809F0010B52
:104E2000D8F8181B009130465B46394600F030F840
:104E3000D8F81C1BD4F8002200915B4606F51060E0
:104E4000514600F025F8D4F800120BEB0B1201EBE1
:104E5000821128460D4A07EB810100F0B3FCD4F81B
:104E60000022039B8036A2EB0B0202F00702B34242
:104E700009F1010905F18005C4F80022CED1C0E78F
:104E80004FF0FF30BEE74FF0FF307047286E01084B
:104E90002DE9F04F8BB0CDE90412149C0893052C3A
:104EA00000F33883C4F1060B031F00F17C0153F8B3
:104EB000042F42FA0BF299421A60F8D1C16F0268CE
:104EC000C46B056C531A0A44C04981FB0363611B20
:104ED0005B002C44BE4D85FB016117194901121B73
:104EE0000760BC4C84FB02525200C2635A18026431
:104EF0005B1A84FB0323816F4268856B446C5B0003
:104F0000C367531A0A44B44981FB0363291B5B003E
:104F10002C44B24D85FB01611519C900121B069581
:104F20004560AF4C84FB0252520082635A184264BF
:104F30005B1A84FB0323446F8268416B856C5B00C2
:104F40008367131B2244A74C84FB03634C1B5B0049
:104F50002944A54D85FB04645618E400521A0796AF
:104F60008660A24981FB0252520042631A19826490
:104F70001B1B81FB0323046FC268016BC56C5B00C4
:104F80004367131B22449A4C84FB03634C1B5B0056
:104F90002944984D85FB046402EB010EA400521ACB
:104FA000C0F80CE0944981FB0252520002631A19C6
:104FB000C2641B1B81FB0323C16E0269C46A056DB9
:104FC0005B000367531A0A448C4981FB0363611B2E
:104FD0005B002C448A4D85FB016115198900121B69
:104FE00003950561874C84FB02525200C2625A1835
:104FF00002655B1A84FB0323816E4269846A456DF6
:105000005B00C366531A0A447F4981FB0363611B3B
:105010005B002C447D4D85FB016102EB04084900D7
:10502000121BC0F814807A4C84FB025292008262F8
:105030005A1842655B1A84FB0323416E8269446AF5
:10504000856D9B008366531A0A44724981FB036392
:10505000611B5B002C44704D85FB016102EB040970
:105060004900121BC0F818906C4C84FB025292004D
:1050700042625A1882655B1A84FB0323016EC2697F
:10508000066AC46D9B004366531A0A44644981FB57
:105090000353644D311B5B00344485FB016102EB1B
:1050A000040C4900121BC0F81CC05F4C84FB025268
:1050B000120102625A18C2655B1A84FB03231B01AA
:1050C0005A4A5B4E5B4C03665B4B5C49DFF87CA144
:1050D0005B4DCDF824B0CDE90123079B079000F18B
:1050E00020027046B6462646069CDDF80CB00391B9
:1050F000A7EB0C01674486FB01C1A0EB0B0649003E
:1051000058448EFB06C6A7EB000CF600384485FB1E
:105110000C7C8F1B4FEA4C0C0E44394685FB017109
:10512000A4EB09054FEA410B4C44039981FB05753B
:10513000A3EB080701996D00434481FB07E7A4EB4B
:10514000030E02997F00234481FB0E4E4FEA8E042A
:10515000A5EB070E2F4481FB0E5E3A494FEA8E0500
:10516000A0EB030881FB08E8ACEB040E81FB0E9E6C
:105170006444034404EB4E044FEA48084FEA4E00EF
:1051800042E9078442F8203C42F8140CF31B0C4619
:1051900081FB0303ABEB05000BEB05015B00254630
:1051A00085FB004001EB4001440003EB40000B4451
:1051B00042E90234244B3E440AF1180A0E44534596
:1051C00042E9046002F120025ED041E051C2134086
:1051D000FB22855172464F40BD45B340CF200B6D39
:1051E000103CE1426D2DFA419057D941449F9148BE
:1051F0002134F943968DFC5E630ECB52C41BCC4622
:10520000971AD84A2E40E264F09C9D4AB31D7D7CDB
:10521000A924E2431137AE4F26CF6F6BC1923C6E8B
:10522000A71E6056EBF64C5F044E9E51BF6B327367
:105230004267035246FB404145BA9E5388DEF84C14
:10524000EFE945459A79825AF47601089476010887
:10525000DAE91A53DAF874100393DAF8703001932C
:1052600052E9050BDAF8606052F8207C52F804CC61
:10527000DAF864E052F81C4C52F8089C52F8183CDA
:1052800052F80C8C029133E7059A089BDDF824B0A4
:105290000798D21A02F0070202F580629100002BF3
:1052A00000F02C81049D059B04686E189B003462FD
:1052B00003F5885345F822400024049DA1F57C6144
:1052C000EA180C4441681162E9502B19416E456F90
:1052D0002944456C0D44C2F82051C2F80051476B77
:1052E000456A3D44C2F82052C2F80052456D294437
:1052F000C2F82013C2F80013456F4769C16EC2F8A7
:105300002074C2F800742944456D0D44C2F820553C
:10531000C2F80055C76A456B3D44C2F82056C2F832
:105320000056C56C2944C2F82017C2F80017C56E94
:10533000C16F2944C568C2F82058C2F80058C56C2E
:105340000D44C2F82059C2F80059C56AC76B3D44E4
:10535000C2F8205AC2F8005AC56D2944C2F8201B71
:10536000C2F8001BC169C56FC2F8201CC2F8001C3E
:10537000C16D2944C2F8201DC2F8001DC16BC2F8DE
:10538000201EC2F8205FC2F8005FC2F8001E049D14
:10539000416819622951816F446E2144446C0C4468
:1053A000C3F82041C3F80041456A846B2C44C3F81C
:1053B0002042C3F80042846D2144C3F82013C3F88F
:1053C00000138169C3F82014C3F80014846F816E40
:1053D0002144846D0C44C3F82045C3F80045856B17
:1053E000846A2C44C3F82046C3F80046846C2144E8
:1053F000C3F82017C3F800178168C3F82018C3F852
:105400000018846E016F2144846C0C44C3F8204959
:10541000C3F80049856A046B2C44C3F8204AC3F8DA
:10542000004A046D2144C3F8201BC3F8001B016926
:10543000C3F8201CC3F8001C046F016E2144046DE6
:105440000C44C3F8204DC3F8004D046A056B2C448E
:10545000C3F8204EC3F8004E006C0144C3F8201F6F
:10546000C3F8001FBBF1000F45D03168CBF11F041A
:105470004FF0004541FA04F025FA0BF5B0EBE17F5F
:105480004FEAE17705F1FF3518BF85EA070101FA18
:105490000BF102F120003162316002F5815250F8C7
:1054A000201C41FA04F6B6EBE17F4FEAE17718BF22
:1054B00085EA070101FA0BF1016040F8201C00F5B4
:1054C00080708242EBD103F1200103F5815351F842
:1054D000202C42FA04F0B0EBE27F4FEAE27618BFEC
:1054E00085EA060202FA0BF20A6041F8202C01F567
:1054F00080718B42EBD10BB0BDE8F08F049D059B12
:10550000046801F58852AE189B003462AC504FF429
:105510008854D2E64FF0000BD0E400BF2DE9F04FE5
:10552000844683B0D2E900754FF000730024CE6D3D
:105530000868C0FB07346D42C6FB0534D5684F6868
:105540008E6D9068C7FB00346D42C6FB053455690B
:105550008F684E6D1069C7FB00346D42C6FB053481
:10556000D569CF680E6D9069C7FB00346D42C6FBEC
:105570000534556A0F69CE6C106AC7FB00346D4262
:10558000C6FB0534D56A4F698E6C906AC7FB003440
:105590006D42C6FB0534556B8F694E6C106BC7FBB3
:1055A00000346D42C6FB0534D56BCF690E6C906B31
:1055B000C7FB00346D42C6FB05341B0D43EA0433C0
:1055C0005D15B5EBE37F1CBFDC1784F4FF4301F5E9
:1055D00080550CBF9B1183F07F03D2F800742E68B6
:1055E000ACF8003000244FF00073C6FB0734D2F84B
:1055F00004746E68C6FB0734D2F80874AE68C6FB44
:105600000734D2F80C74EE68C6FB0734D2F8107475
:105610002E69C6FB0734D2F814746E69C6FB0734D2
:10562000D2F81874AE69C6FB0734ED69D2F81C6471
:10563000C5FB06341B0D43EA04335D15DC17B5EBDF
:10564000E37F16BF84F4FF439B1183F07F03ACF824
:10565000203002F5886302F180040CF140090193C7
:105660004FF000780027E64654E910ABD1F800016E
:10567000D1F85CC142463E46C0FB0A2643463D4641
:10568000C0FB0B35CBF10000CCFB0026CCFB0A3570
:1056900054E90ECAD1F804B1D1F85801CBFB0C265D
:1056A000CBFB0A35CAF1000AC0FB0A26C0FB0C3549
:1056B00054E90CCAD1F808B1D1F85401CBFB0C263F
:1056C000CBFB0A35CAF1000AC0FB0A26C0FB0C3529
:1056D00054E90ACAD1F80CB1D1F85001CBFB0C2621
:1056E000CBFB0A35CAF1000AC0FB0A26C0FB0C3509
:1056F00054E908CAD1F810B1D1F84C01CBFB0C2603
:10570000CBFB0A35CAF1000AC0FB0A26C0FB0C35E8
:1057100054E906C0D1F814B1D1F848A1CBFB0C264E
:10572000CBFB00354042CAFB0026CAFB0C3554E9CE
:1057300004C0D1F818B1D1F844A1CBFB0C26CBFBA7
:1057400000354042CAFB0026CAFB0C3554E902C0B2
:10575000D1F81CB1D1F840A1CBFB0C26CBFB003516
:105760004042CAFB0026CAFB0C35120D42EA063243
:105770005615D017B6EBE27F4FEA135343EA0533D1
:1057800014BF80F4FF4292114FEA635018BF82F0B9
:105790007F022EF8022FB0EBE37F4FEAE37216BFD1
:1057A00082F4FF439B1183F07F0329F8023D019BA4
:1057B00040349C4201F580717FF456AF03B0BDE8E0
:1057C000F08F00BF2DE9F04F4FF00073002585B03A
:1057D00016680F6880461C46AC46C7FB064C5768E7
:1057E000C7F1000ECF6DC7FB0E4CD1F88070C7FB20
:1057F0000635D1F8DC60C6FB0E3596684F68C7FBEE
:10580000064CD768C7F1000E8F6DC7FB0E4CD1F860
:105810008470C7FB0635D1F8D860C6FB0E35166913
:105820008F68C7FB064C5769C7F1000E4F6DC7FB69
:105830000E4CD1F88870C7FB0635D1F8D460C6FB92
:105840000E359669CF68C7FB064CD769C7F1000EC5
:105850000F6DC7FB0E4CD1F88C70C7FB0635D1F825
:10586000D060C6FB0E35166A0F69C7FB064C576A37
:10587000C7F1000ECF6CC7FB0E4CD1F89070C7FB80
:105880000635D1F8CC60C6FB0E35966A4F69C7FB6A
:10589000064CD76AC7F1000E8F6CC7FB0E4CD1F8CF
:1058A0009470C7FB0635D1F8C860C6FB0E35166B81
:1058B0008F69C7FB064C576BC7F1000E4F6CC7FBD7
:1058C0000E4CD1F89870C7FB0635D1F8C460C6FB02
:1058D0000E35966BCF69C7FB064CD76BC7F1000E30
:1058E0000F6CC7FB0E4CD1F89C70C7FB0635D1F886
:1058F000C060C6FB0E35240D44EA0C346715B7EBC7
:10590000E47F18BFE6174FEA135343EA053318BF85
:1059100086F4FF444FEA63550CBFA41184F07F0462
:105920000480B5EBE37F4FEAE37418BF84F4FF43D0
:1059300001F580550CBF9B1183F07F034FF000777A
:105940000026D2F800C4438034463B462868C0FB9A
:105950000C34D5F88000C0FB0C76D2F804C468681B
:10596000C0FB0C34D5F88400C0FB0C76D2F808C418
:10597000A868C0FB0C34D5F88800C0FB0C76D2F8C0
:105980000CC4E868C0FB0C34D5F88C00C0FB0C7666
:10599000D2F810C42869C0FB0C34D5F89000C0FBC5
:1059A0000C76D2F814C46869C0FB0C34D5F89400A6
:1059B000C0FB0C76D2F818C4A869C0FB0C34D5F82B
:1059C0009800C0FB0C76D2F81CC4E869C0FB0C340C
:1059D000D5F89CE03D46CEFB0C561B0D43EA043344
:1059E0005F15DC17B7EBE37F16BF84F4FF439B1111
:1059F00083F07F03A8F840302B0D43EA06335D1592
:105A0000DC17B5EBE37F16BF84F4FF439B1183F0F3
:105A10007F03A8F8423008F10803CDE9003802F509
:105A2000886302F1800B03935BE910E8D1F8000171
:105A3000D1F85C314FF000744FF0000CC0FB0E4CFD
:105A40004FF000720026C0FB0826C8F1000AC3FB15
:105A50000A4CC3FB0E264FF00070D1F8DC91D1F850
:105A6000803102920027C3FB0E074FF00073D1F87C
:105A700080210025C2FB0835C9FB0A07C9FB0E358A
:105A80005BE90EAED1F80491D1F85881C9FB0A4CFC
:105A9000029AC9FB0E26CEF10009C8FB094CC8FBCF
:105AA0000A260292D1F8D881D1F88421C2FB0A07D4
:105AB000C2FB0E35C8FB0907C8FB0A355BE90CAE13
:105AC000D1F80891D1F85481C9FB0A4C029AC9FB5C
:105AD0000E26CEF10009C8FB094CC8FB0A2602922B
